{
  "_format": "hh-sol-artifact-1",
  "contractName": "Twitter",
  "sourceName": "contracts/Twitter.sol",
  "abi": [
    {
      "anonymous": false,
      "inputs": [
        {
          "indexed": true,
          "internalType": "address",
          "name": "from",
          "type": "address"
        },
        {
          "indexed": false,
          "internalType": "uint256",
          "name": "timestamp",
          "type": "uint256"
        },
        {
          "indexed": false,
          "internalType": "string",
          "name": "message",
          "type": "string"
        }
      ],
      "name": "NewTweet",
      "type": "event"
    },
    {
      "inputs": [],
      "name": "getFeed",
      "outputs": [
        {
          "components": [
            {
              "internalType": "address",
              "name": "account",
              "type": "address"
            },
            {
              "internalType": "string",
              "name": "message",
              "type": "string"
            },
            {
              "internalType": "uint256",
              "name": "timestamp",
              "type": "uint256"
            }
          ],
          "internalType": "struct Twitter.Tweet[]",
          "name": "",
          "type": "tuple[]"
        }
      ],
      "stateMutability": "view",
      "type": "function"
    },
    {
      "inputs": [],
      "name": "getTotalTweets",
      "outputs": [
        {
          "internalType": "uint256",
          "name": "",
          "type": "uint256"
        }
      ],
      "stateMutability": "view",
      "type": "function"
    },
    {
      "inputs": [
        {
          "internalType": "string",
          "name": "_message",
          "type": "string"
        }
      ],
      "name": "tweet",
      "outputs": [],
      "stateMutability": "nonpayable",
      "type": "function"
    }
  ],
  "bytecode": "0x608060405234801561001057600080fd5b50610b54806100206000396000f3fe608060405234801561001057600080fd5b50600436106100415760003560e01c806393f11c2714610046578063dbadb1d114610064578063fb46d4c514610082575b600080fd5b61004e61009e565b60405161005b91906103d8565b60405180910390f35b61006c6100a8565b60405161007991906105e5565b60405180910390f35b61009c60048036038101906100979190610676565b6101f9565b005b6000600154905090565b60606000805480602002602001604051908101604052809291908181526020016000905b828210156101f057838290600052602060002090600302016040518060600160405290816000820160009054906101000a900473ffffffffffffffffffffffffffffffffffffffff1673ffffffffffffffffffffffffffffffffffffffff1673ffffffffffffffffffffffffffffffffffffffff168152602001600182018054610155906106f2565b80601f0160208091040260200160405190810160405280929190818152602001828054610181906106f2565b80156101ce5780601f106101a3576101008083540402835291602001916101ce565b820191906000526020600020905b8154815290600101906020018083116101b157829003601f168201915b50505050508152602001600282015481525050815260200190600101906100cc565b50505050905090565b6101f4828290501115610241576040517f08c379a000000000000000000000000000000000000000000000000000000000815260040161023890610780565b60405180910390fd5b600180600082825461025391906107cf565b92505081905550600060405180606001604052803373ffffffffffffffffffffffffffffffffffffffff16815260200184848080601f016020809104026020016040519081016040528093929190818152602001838380828437600081840152601f19601f820116905080830192505050505050508152602001428152509050600081908060018154018082558091505060019003906000526020600020906003020160009091909190915060008201518160000160006101000a81548173ffffffffffffffffffffffffffffffffffffffff021916908373ffffffffffffffffffffffffffffffffffffffff160217905550602082015181600101908161035b91906109de565b506040820151816002015550503373ffffffffffffffffffffffffffffffffffffffff167f247b19649778c81aad1923b4b49025b7eed6f664d6a4e802190bfb35724f95a94285856040516103b293929190610aec565b60405180910390a2505050565b6000819050919050565b6103d2816103bf565b82525050565b60006020820190506103ed60008301846103c9565b92915050565b600081519050919050565b600082825260208201905092915050565b6000819050602082019050919050565b600073ffffffffffffffffffffffffffffffffffffffff82169050919050565b600061044a8261041f565b9050919050565b61045a8161043f565b82525050565b600081519050919050565b600082825260208201905092915050565b60005b8381101561049a57808201518184015260208101905061047f565b60008484015250505050565b6000601f19601f8301169050919050565b60006104c282610460565b6104cc818561046b565b93506104dc81856020860161047c565b6104e5816104a6565b840191505092915050565b6104f9816103bf565b82525050565b60006060830160008301516105176000860182610451565b506020830151848203602086015261052f82826104b7565b915050604083015161054460408601826104f0565b508091505092915050565b600061055b83836104ff565b905092915050565b6000602082019050919050565b600061057b826103f3565b61058581856103fe565b9350836020820285016105978561040f565b8060005b858110156105d357848403895281516105b4858261054f565b94506105bf83610563565b925060208a0199505060018101905061059b565b50829750879550505050505092915050565b600060208201905081810360008301526105ff8184610570565b905092915050565b600080fd5b600080fd5b600080fd5b600080fd5b600080fd5b60008083601f84011261063657610635610611565b5b8235905067ffffffffffffffff81111561065357610652610616565b5b60208301915083600182028301111561066f5761066e61061b565b5b9250929050565b6000806020838503121561068d5761068c610607565b5b600083013567ffffffffffffffff8111156106ab576106aa61060c565b5b6106b785828601610620565b92509250509250929050565b7f4e487b7100000000000000000000000000000000000000000000000000000000600052602260045260246000fd5b6000600282049050600182168061070a57607f821691505b60208210810361071d5761071c6106c3565b5b50919050565b600082825260208201905092915050565b7f4578636565646564206c696d6974206f66203530302063686172616374657273600082015250565b600061076a602083610723565b915061077582610734565b602082019050919050565b600060208201905081810360008301526107998161075d565b9050919050565b7f4e487b7100000000000000000000000000000000000000000000000000000000600052601160045260246000fd5b60006107da826103bf565b91506107e5836103bf565b92508282019050808211156107fd576107fc6107a0565b5b92915050565b7f4e487b7100000000000000000000000000000000000000000000000000000000600052604160045260246000fd5b60008190508160005260206000209050919050565b60006020601f8301049050919050565b600082821b905092915050565b6000600883026108947fffffffffffffffffffffffffffffffffffffffffffffffffffffffffffffffff82610857565b61089e8683610857565b95508019841693508086168417925050509392505050565b6000819050919050565b60006108db6108d66108d1846103bf565b6108b6565b6103bf565b9050919050565b6000819050919050565b6108f5836108c0565b610909610901826108e2565b848454610864565b825550505050565b600090565b61091e610911565b6109298184846108ec565b505050565b5b8181101561094d57610942600082610916565b60018101905061092f565b5050565b601f8211156109925761096381610832565b61096c84610847565b8101602085101561097b578190505b61098f61098785610847565b83018261092e565b50505b505050565b600082821c905092915050565b60006109b560001984600802610997565b1980831691505092915050565b60006109ce83836109a4565b9150826002028217905092915050565b6109e782610460565b67ffffffffffffffff811115610a00576109ff610803565b5b610a0a82546106f2565b610a15828285610951565b600060209050601f831160018114610a485760008415610a36578287015190505b610a4085826109c2565b865550610aa8565b601f198416610a5686610832565b60005b82811015610a7e57848901518255600182019150602085019450602081019050610a59565b86831015610a9b5784890151610a97601f8916826109a4565b8355505b6001600288020188555050505b505050505050565b82818337600083830152505050565b6000610acb8385610723565b9350610ad8838584610ab0565b610ae1836104a6565b840190509392505050565b6000604082019050610b0160008301866103c9565b8181036020830152610b14818486610abf565b905094935050505056fea2646970667358221220a11da27438452ca782c911d2144298aab74ae94db1ea7c4299dbf8470ab15d0b64736f6c63430008110033",
  "linkReferences": {},
  "deployedLinkReferences": {}
}